:020000040000fa
:10000000f07f00202d5400001f53000033620000d9
:1000100000000000000000000000000000000000e0
:10002000000000000000000000000000b9690000ae
:100030000000000000000000b96900009d6300009e
:10004000b9690000b9690000b9690000ad3000006d
:10005000b9690000b9690000b9690000b969000018
:10006000b9690000c141000051420000e1420000b6
:100070007143000001440000b9690000b969000043
:10008000b9690000b9690000b9690000b9690000e8
:10009000b9690000b9690000b9690000b9690000d8
:0800a000b9690000b969000014
:020000040000fa
:1000a800f8b5c046f8bc08bc9e467047615a0000c7
:1000b800f8b5c046f8bc08bc9e467047395a0000df
:020000040000fa
:1000c800483800201c00000000000000000000204c
:1000d8007c000000000000007c00002020000000e0
:1000e800000000009c0000200e000000000000003e
:1000f800ac0000200802000000000000b40200204c
:100108000f00000000000000c402002004000000ee
:1001180000000000c80200200200000000000000eb
:10012800cc020020e901000000000000b804002013
:100138000800000000000000c004002019000000b2
:1001480000000000dc0400200c000000000000009b
:10015800e804002034030000000000001c08002010
:100168004c0c000000000000681400200819000072
:1001780000000000702d0020740300000000000043
:10018800e430002074030000000000005834002010
:1001980012020000000000006c3600200c00000075
:1001a8000000000064380020040000000100000086
:1001b800e8370020e8370020600000000100000058
:1001c8000000000050660000706600003066000005
:1001d8000000000000000000000000000000000017
:1001e8000000000000000000000000000000000007
:1001f80000000000000000000000000000000000f7
:1002080000000000000000000000000000000000e6
:1002180000000000000000000000000000000000d6
:100228006838002004000000000000006c3800203e
:1002380004000000000000007c3600206c01000073
:100248000100000043000000000000000000000062
:100258000000000000000000000000000000000096
:100268000000000043000000000000000000000043
:100278000000000000000000000000000000000076
:100288000000000043000000000000000000000023
:100298000000000000000000000000000000000056
:1002a8000000000043000000000000000000000003
:1002b8000000000000000000000000000000000036
:1002c80000000000430000000000000000000000e3
:1002d8000000000000000000000000000000000016
:1002e80000000000430000000000000000000000c3
:1002f80000000000000000000000000000000000f6
:1003080000000000430000000000000000000000a2
:1003180000000000000000000000000000000000d5
:10032800000000000d68000061650000000000008a
:10033800bc2b0000a5690000a4690000a4690000a6
:10034800a4690000a4690000a4690000a469000071
:10035800a4690000a4690000a4690000ffffffff72
:10036800ffffffffffffffffffff000001004153fa
:1003780043494900000000000000000000000000a0
:1003880000000000000000000000000000004153d1
:100398004349490000000000000000000000000080
:1003a8000000000000000000000000000000000045
:1003b800783600200400000000000000703800209b
:1003c8000400000000000000000000000000000021
:020000040000fa
:1003d80070b5984b186806f091f903f032f8964b0f
:1003e8001b68052b00d910e19a0094498a58974652
:1003f800904b186806f074f900228f4b1a6070bd94
:100408008021490398238e4ad15002228a4b1a60d0
:10041800f5e70133884a1360f1e705f033fe05f08c
:100428004bfe854a136801331360e8e703f009f8c7
:10043800844c7a232370a72363700026a670e67085
:1004480002232371012363717f4d2a887f4b1a6031
:100458006a887f4b1a60aa887e4b1a60ea887e4bae
:100468001a602a897d4b1a6002f0ebff02f0e9ff5f
:100478002b881a0aa271e3716b881a0a22726372b6
:10048800ab881a0aa272e372eb881a0a22736373a2
:100498002b891a0aa273e373ab7a2374eb7a637419
:1004a8002b7ba3746b7be374ab7b2375eb7b63754e
:1004b8002b7ca3756b7ce375ab7c2376eb7c637636
:1004c800ab8a1a0aa276e376eb8a1a0a227763774e
:1004d8002b7ea3776b7ee377aa7e2023e254ab8b37
:1004e800190a2122a1542222a3542323e6542423a7
:1004f800e654d3222523e2543d222623e254a67053
:100508002723e370a21c2334002311785b189bb2c5
:100518000132a242f9d14b481a0a23254255242414
:100528000355272105f0befe02f08bff02f089ff7c
:100538004b4b7a221a70a7225a7000219970022216
:100548001a7101225a71474a1088060a9e71d87199
:100558005088060a1e7258729088060a9e72d872cf
:10056800d088060a1e7358731089060a9e73d873ba
:10057800907a1874d07a5874107b9874507bd87419
:10058800907b1875d07b5875107c9875507cd87501
:10059800907c1876d07c5876908a060a9e76d87613
:1005a800d08a060a1e775877107e9877507ed877bb
:1005b800967e20201e54928b160a21201e5422203b
:1005c8001a5459551955d321252299543d212622cb
:1005d80099542722da709a1c2333190000231078c3
:1005e8001b189bb201328a42f9d11d48190a2322ed
:1005f800815424228354272105f07cfe02f021ff38
:100608000d4a136801331360f9e60f2b07dd094b18
:10061800186806f065f80022074b1a60efe602f04a
:1006280010ff0122104b1a60034a1368013313604c
:10063800e5e6c0469400002098000020ac67000062
:1006480000600041702d0020c42f00207c00002095
:1006580090000020840000208c00002088000020ea
:0c066800ec3000206c31002080000020ed
:020000040000fa
:1006740010b5a04b1b7f0a2b00d010bd9d4b5b7f98
:10068400102b04d0122b13d006f026f9f5e79a4b61
:100694009a4ad0785821585410795921585450798d
:1006a4005a21585491795b22995402f0ccfeebe71d
:1006b40002f0c9fe904c914bd9785c22a15419796f
:1006c4005d22a15459795e22a15499795f22a154e3
:1006d400d97909021a7a0a4360216252597a0902c5
:1006e4009a7a0a4362216252d97a09021a7b0a432e
:1006f40064216252597b09029a7b0a436621625241
:10070400d97b09021a7c0a4368216252597c6a2205
:10071400a154997c6b22a154d97c6c22a154197ddb
:100724006d22a154597d6e22a154997d6f22a1544a
:10073400d97d7022a154197e7122a154597e72224e
:10074400a154997e7322a154d97e09021a7f0a43c7
:1007540074216252597f09029a7f0a4376216252b8
:10076400d97f7822a1542022995c7922a154212294
:10077400995c7a22a1542222995c090223229a5c70
:100784000a437c2162522922995c09022a229a5c3a
:100794000a437e2162522c22995c09022d229a5c22
:1007a4000a43802162522e22995c09022f229a5c0c
:1007b4000a43822162523022995c090231229a5cf6
:1007c4000a43842162523222995c090233229a5ce0
:1007d4000a43862162523422995c090235229a5cca
:1007e4000a43882162523622995c090237229a5cb4
:1007f4000a438a2162523822995c090239229a5c9e
:100804000a438c2162523a22995c09023b229a5c87
:100814000a438e2162523c22995c09023d229a5c71
:100824000a43902162523e22995c09023f229a5c5b
:100834000a43922162524022995c090241229a5c45
:100844000a43942162524222995c090243229a5c2f
:100854000a43962162524422995c090245229a5c19
:100864000a43982162524622995c090247229a5c03
:100874000a439a21625248229a5c120249215b5c23
:1008840013439c22a35202f0defd2000a63005f0a3
:1008940019f901f0a3fd2000583003f089f800286d
:1008a40019d1174805f048fb00281bd1144c5623d6
:1008b40022002121d12002f031fe02f0c4fd2300e8
:1008c400583b21799e2299545e22995c9f22995427
:1008d40002f0b9fdd8e65623094a2121d12002f0bd
:1008e4001dfedee75623064a2121d12002f016fe22
:1008f400dce7c046f42e002048010020402f0020f1
:04090400a00100202e
:020000040000fa
:10090800f0b5c64600b58c4b1b78002b47d1213378
:10091800ff338a4ad358db0544d4894b1b78012b13
:1009280005d090235b00854ad358db0543d4824b1e
:1009380042221a7000245c7001229a80ff32002142
:10094800804805f0ffff804b1c6002f07afd7a4f6b
:100958007d4b98467b78012b62d0002b2ed0022b42
:1009680000d183e0032bf6d190235b00734ad35860
:10097800db0500d5abe0744b1868724bc018012139
:1009880002f006fc05f05afa704b1b781a2b00d1be
:10099800a6e0694a002313705370694a137004bcb7
:1009a8009046f0bd02f04dfd0023654a1370624a7f
:1009b80013705370f3e702f044fdf0e790235b00f7
:1009c8005e4ad358db051bd45b4b1878012102f033
:1009d800effa5f4b187001281bd0574a5378013340
:1009e800537090235b00554ad358db05b2d502f00b
:1009f80028fd0023524a13704f4a13705370cee7f4
:100a080002f01ffd00234e4a13704b4a13705370b7
:100a1800c5e700234a4a1370474a13705370bee76c
:100a280090235b00454ad358db0516d443461b6820
:100a3800444a944663441800002102f0a9fb434647
:100a48001b68404ad15c414a117001334246136029
:100a5800394a5378013353707ce702f0f2fc0023e3
:100a6800374a1370344a1370537098e702f0e9fc60
:100a7800354b1868354b1b78013b834222dd9023a8
:100a88005b002e4ad358db0513d42e4e2e4c2f4d27
:100a98008019002102f07cfb2368581c20602b7809
:100aa800013b83420edd90235b00244ad358db05cb
:100ab800eed502f0c6fc0023214a13701e4a1370bb
:100ac80053706ce71c4a53780133537042e702f0c5
:100ad800b8fc00231a4a1370174a137053705ee764
:100ae80002f0affc174b1b781a2b00d051e7154bbf
:100af800db78912b00d04ce7124b1b791f2b00d0d1
:100b080047e7104b5b79012b00d042e70d4b9b7aee
:100b1800023b032b00d93ce702f093fc094b9a7a7d
:100b28000c4b9a630c4804f0cbff0c230b4a1121a1
:100b3800d12002f0f1fc2ce764360020006000416f
:100b4800c90200206435002060350020c80200205a
:100b58005834002048010020840100208001002032
:020000040000fa
:100b680070b5914b1b7f0a2b00d070bd8e4b5b7ffd
:100b7800102b04d0122b13d005f0b6fef5e78b4be3
:100b88008b4ad078ae2158541079af2158545079f7
:100b9800b02158549179b122995402f052fcebe7f4
:100ba80002f04ffc814c824bb226da78a2551979b3
:100bb800b322a154b4255a7962559979b522a15422
:100bc800d97909021a7a0a43b6216252597a090276
:100bd8009a7a0a43b8216252d97a09021a7b0a43df
:100be800ba216252597b09029a7b0a43bc2162529c
:100bf800d97b09021a7c0a43be216252597cc02261
:100c0800a154997cc122a154d97cc222a154197d36
:100c1800c322a154597dc422a154997dc522a1544f
:100c2800d97dc622a154197ec722a154597ec82253
:100c3800a154997ec922a154d97e09021a7f0a4378
:100c4800ca216252597f09029a7f0a43cc21625213
:100c5800d97fce22a1542022995ccf22a1542122ef
:100c6800995cd022a1542222995c090223229a5c21
:100c78000a43d22162522922995c09022a229a5ceb
:100c88000a43d42162522c22995c09022d229a5cd3
:100c98000a43d62162522e22995c09022f229a5cbd
:100ca8000a43d82162523022995c090231229a5ca7
:100cb8000a43da2162523222995c090233229a5c91
:100cc8000a43dc2162523422995c090235229a5c7b
:100cd8000a43de2162523622995c090237229a5c65
:100ce8000a43e02162523822995c090239229a5c4f
:100cf8000a43e22162523a22995c09023b229a5c39
:100d08000a43e42162523c22995c09023d229a5c22
:100d18000a43e62162523e22995c09023f229a5c0c
:100d28000a43e82162524022995c090241229a5cf6
:100d38000a43ea2162524222995c090243229a5ce0
:100d48000a43ec2162524422995c090245229a5cca
:100d58000a43ee2162524622995c090247229a5cb4
:100d68000a43f021625248229a5c120249215b5cd4
:100d78001343f222a35202f064fb2000fc3004f07b
:100d88009ffe2200ae3256232221d12002f0c4fb5e
:100d980002f057fba25df423e254625df523e254ae
:100da80002f04ffbe8e6c0460c3300204801002063
:040db8008c32002059
:020000040000fa
:100dbc00f0b58bb006920a0043320793059004926b
:100dcc000a7e0c00109b6e2a00d190e017d8632a83
:100ddc002dd008d8002a00d19ae0582a55d02600e8
:100dec00423632702ae0642a01d0692af7d1216890
:100dfc001a68080624d5111d1960156826e0732a97
:100e0c0000d189e008d86f2a2ad0702ae7d1202295
:100e1c0009680a43226003e0752a21d0782aded1c2
:100e2c0022007821453211706d4a113230e00e00eb
:100e3c001a684236111d196013683370012379e06a
:100e4c004906d8d5111d19600023d55e002d03da93
:100e5c002d23049a6d421370614b0a2703932fe0e4
:100e6c0020681968050603d5081d18600d6805e093
:100e7c004006f9d50d68081d1860adb2584b08270f
:100e8c0003936f2a18d00a2716e045310a70544a8a
:100e9c0003921a682168101d18601568080622d57f
:100eac00cb0702d52023194321601027002d03d135
:100ebc00202322689a4322602300002243331a70b5
:100ecc006368a360002b5cdb0422216891432160e2
:100edc00002d58d1049e002b64d02600039b423673
:100eec001b7833705ee04806dad5adb2d8e70968f6
:100efc001a68080605d5111d1960136862691a6015
:100f0c0006e04906f7d5111d19601368a28a1a80ec
:100f1c000023049e236154e01a68111d19601668a1
:100f2c0000216268300005f077fc002801d0801b9e
:100f3c006060636823610023049a137041e02369a5
:100f4c00320006990598079da847431c43d0236897
:100f5c0000259b070fd4099be06898423dda1800e6
:100f6c003be022000123193206990598079eb047f1
:100f7c00431c30d00135e368099a9b1a9d42f0db83
:100f8c00e9e7002da9d0049e2800390003f08afb64
:100f9c00039b013e5b5c28003370390003f046fb79
:100fac00051ef1d1082f09d12368db0706d563682c
:100fbc002269934202dc3023013e3370049b9b1b5d
:100fcc002361079b09aa00932100069b059802f058
:100fdc00c9f9431cb3d1012040420bb0f0bdc0464f
:040fec00cc650000d0
:020000040000fa
:100ff000f0b5de4657464e464546e0b57a4b802171
:101000005a588020c00002435a5090229c582043d6
:101010009850942081466c304c4618515c5880277b
:101020003f013c435c509c583c439c508024a400ae
:101030004d465c511c5880256d012c431c50882462
:1010400064001d598026760135431d518a256d00a7
:10105000a8465e511d582e008025ad012e431e501e
:101060001e592e431e5146469d511e58b04680269d
:10107000f604b446464665462e431e501d592e00c2
:1010800065462e431e518c256d00ab4666465e516b
:101090000025a846554d46462e701d58aa46802567
:1010a000ad02ac4656462e431e501d592e006546d5
:1010b0002e431e515d4666465e514d4d46462e708e
:1010c0004c4d2e704c4d2e701d58aa464b4da846c7
:1010d00056462e401e5018593843185107203b34ad
:1010e00018551c68464d2c401c601c69a246802483
:1010f000240555462c431c615b2418555c58a246b8
:1011000080246403564626435e509d582e00264395
:101110009e504d465c515c5865462c435c509c5833
:101120002c439c509824a1461d515c58a446802411
:10113000e402664626435e509d582e0026439e508c
:101140004d465c515c58a4468024240366462643e1
:101150005e509d582c439c504424a446d32465469d
:101160001d555c5845462c405c509c5827439f5069
:10117000cb2418555c58234f3c405c509c5880262b
:10118000760126439e50cc2418555c581e4e3440a0
:101190005c509c588025ad0125439d50cd241855a9
:1011a0005c581a4d2c405c509d588024e4012c431f
:1011b0009c50ce2418555d581026b5435d509c5860
:1011c00034439c50c42418555c582025ac435c50d3
:1011d000995829439950c52298543cbc9046994649
:1011e000a246ab46f0bdc04600600041c0020020f0
:1011f000b8020020c1020020c2020020fff7ffff5a
:10120000fffffff7ffefffffffdfffffffbfffff66
:020000040000fa
:10121000f0b59fb006000f0015000593002804d01c
:101220008369002b01d103f01dff764b9f425ed1f5
:101230007768bb891b0764d53b69002b61d000230d
:1012400006ac63612023637630230395a376039d68
:101250002b78002b5fd1039beb1a04930dd0049bda
:10126000039a3900300004f0e3fc431c00d1c2e0d3
:101270006269049b9446634463612b78002b00d120
:10128000b9e00122532100235242626002aa52189f
:1012900001352360e360a3601370a36505222978fc
:1012a000594805f0bffa6a1c002838d12168cb06de
:1012b00006d520239c46532302a8c018634603701a
:1012c0000b0706d52b239c46532302a8c018634660
:1012d00003702b782a2b2bd000200a21e3682a7870
:1012e000303a092a69d900282ad0e36028e0474b20
:1012f0009f4201d1b7689ce7454b9f4299d1f7685f
:1013000097e73900300001f0bdff002897d0012099
:1013100040421fb0f0bd252b9dd0013598e73a4bd8
:101320002168c01a012383400b4323601500b5e7f1
:10133000059b181d1b680590002b38dbe36015002a
:101340002b782e2b0bd16b786a1c2a2b3dd1059b59
:1013500002351a1d1b680592002b33db6360297868
:1013600003222c4805f05efa002807d0294b22689a
:10137000c01a402383401343236001352248297853
:101380006b1c06220a300393217605f04bfa05aa5e
:101390000092214b3a002100002828d0300005f0af
:1013a0002bfb431c27d06369181860614fe75b4231
:1013b000e36002230b432360c1e74b4301359b18d5
:1013c00001208ce701235b42c8e7002315000a20b7
:1013d0001a00636029783039092903d9002bbed05f
:1013e0006260bce74243013552180123f2e7300046
:1013f000fff7e4fcd5e7bb895b0600d587e76069aa
:1014000087e7c046506600002a6900007066000049
:0c1410003066000030690000315c000014
:020000040000fa
:10141c0070b502f014f802f012f802f010f802f0b5
:10142c000ef8002003f0dcfc05f066fa5d4dae22f0
:10143c0052000021280005f083fa5b4c5b4b220024
:10144c0043cb43c243cb43c203cb03c20026584b0e
:10145c001e60ff239e22ab549f22ab54f422ab544c
:10146c00f522ab5404f034f806220021514805f063
:10147c0067fa04f0fffa04f097fd05f093fa05f013
:10148c008dfa00f0c3f805f0adf8f02003f042f847
:10149c0004f05cfe01f0d3ff2000203004f00efbc2
:1014ac0001f0cdff444b1e70fa24a4000023434ae4
:1014bc000021200003f048fa414b186004f07cfc3a
:1014cc000023404a0021200003f03efa3e4b1860f6
:1014dc0000f092f900233d4a0021200003f034fa79
:1014ec003b4b186001f066fc00233a4a00213a4855
:1014fc0003f02afa394b186003f022f980214903d2
:10150c009823374ad1500023364a0121200003f09a
:10151c001bfa354b18600023344a0021fa20c00016
:10152c0003f012fa324b186005f0a0f90023314a8f
:10153c000021314803f008fa304b186004f0dafc53
:10154c0000232f4a0021fa20400003f0fdf92d4b17
:10155c00186003f079f900232b4a0121c82003f00d
:10156c00f3f901f06cff01f0a3fc01f068ff01f04e
:10157c0066ff00f0bdfb01f06ff801f060ff00f0ba
:10158c0071fcfff771f800f023fdfff7e7fa01f0ab
:10159c0057ff02f09dfc02f0b7fa00f0bffffff717
:1015ac00adf9dee748010020d0000020f464000013
:1015bc008000002064360020c0020020c55d0000c1
:1015cc00bc02002005180000e0040020c12d000022
:1015dc00780000204d47000088130000e404002030
:1015ec00006000416d6900009400002079680000e3
:1015fc00c4020020015f000010270000d40400206a
:0c160c00f56700006c250020454b000035
:020000040000fa
:10161800f0b583b06b46dc1dff2323700122210047
:10162800002001f049fb2378872b03d001f009ff44
:1016380003b0f0bd01f005ff6b46dc1db623237037
:1016480001222100142002f057f9052004f0e6fcdd
:1016580005232370012221000f2002f04df90122f9
:1016680021000f2001f028fb01f0ebfe0c23237072
:1016780001222100102002f03ff901222100102050
:1016880001f01afb01f0ddfe402323700122210046
:10169800132002f031f901222100132001f00cfb84
:1016a80001f0cffe0025257001222100172002f04d
:1016b80023f901222100172001f0fefa01f0c1fef2
:1016c800257001222100202002f016f901222100b4
:1016d800202001f0f1fa01f0b4fe01272770012261
:1016e8002100292002f008f901222100292001f017
:1016f800e3fa01f0a6fe0a232370012221002b2021
:1017080002f0faf8012221002b2001f0d5fa01f0ad
:1017180098fe0323237001222100272002f0ecf811
:1017280001222100272001f0c7fa01f08afe2523b3
:10173800237001222100282002f0def80122210076
:10174800282001f0b9fa01f07cfe07262670012254
:101758002100162002f0d0f801222100162001f005
:10176800abfa01f06efe277001222100192002f069
:10177800c3f801222100192001f09efa01f061fe50
:101788002570012221001a2002f0b6f8012221005a
:101798001a2001f091fa01f054fe802323700122ef
:1017a8002100212002f0a8f801222100212001f0c7
:1017b80083fa01f046fe02232370012221002a2029
:1017c80002f09af8012221002a2001f075fa01f0ae
:1017d80038fe084b802149005a58074802405a50a1
:1017e800103158588022920002435a504a22ff3240
:0c17f8009e541de700600041fffdffff54
:020000040000fa
:1018040010b5674b186804f07bff01f01cfe04f070
:10181400d7ff644b1888032102f048ff89b20129dd
:101824000fd0002904d0022914d004f0a1ff1ce039
:1018340000225d4b1a81c0214901002004f0ccff35
:10184400f3e70622584b1a81c0214901062004f00f
:10185400c3ffeae70e22544b1a81c02149010e202e
:1018640004f0baffe1e701f0eefd05f065f80028a9
:10187400f9d001f0e8fd4b4b1888032102f016ff64
:1018840089b201293ad0002931d002293dd001f092
:10189400dafd444a13880133138001f0d4fd002299
:1018a400424b1a62a023424ad3581b0534d5a023c5
:1018b4003f4ad358db0449d5a0233d4ad3589b045f
:1018c4005cd5a0233a4ad3585b043cd4374c02235a
:1018d4002362636a6360374823695843fa218900a5
:1018e40002f0a8fe2060344ba360e3602be02e4b93
:1018f4009a8c2e4b1a6101f0a6fdc8e72a4b9a8cec
:101904002a4b5a6101f09ffdc1e7274b9a8c274b64
:101914009a6101f098fdbae7244c08232362254814
:1019240023695843fa21890002f084fe2060234889
:1019340063695843fa21890002f07cfe6060636a9f
:10194400a3601d4be36001f07efd10bd174c042322
:101954002362184823695843fa21890002f06afe79
:101964002060164863695843fa21890002f062fe38
:101974006060114ba360636ae360e4e70b4c0123ee
:101984002362636a23600d4863695843fa2189001e
:1019940002f050fe6060084ba360e360d3e7c046ea
:1019a400e0040020dc040020003000424801002054
:1019b40000600041fa090000b8820100b409000087
:020000040000fa
:1019c40010b5684b1a6a1378222b5fd0d9b222293a
:1019d40011d9282b00d1a7e0402b00d0bde093788b
:1019e400002b00d19ae0012b4fd1802109039423cd
:1019f4005d4ad15049e0212b00d0aee001f023fd37
:101a04005a4b7a221a70a7225a7000219970d97001
:101a140002221a7101225a71524a126a507898713c
:101a24009078d871d0781872107958725079987269
:101a34009079d872d0791873107a5873507a987351
:101a4400907ad873d07a1874107b5874507b987439
:101a5400927bda7419755975d3229a753d22da7519
:101a64001822da709a1c14331900002310781b18fa
:101a74009bb201328a42f9d13c481a0a0275437575
:101a8400182104f011fc01f0defc10bd01f0dbfcb8
:101a9400374b7a221a70a7225a7000219970d97094
:101aa40002221a7101225a712e4a126a50789871d0
:101ab4009078d871d07818721079587250799872d9
:101ac4009079d872d0791873107a5873507a9873c1
:101ad400907ad873d07a1874107b5874507b9874a9
:101ae400927bda7419755975d3229a753d22da7589
:101af4001822da709a1c14331900002310781b186a
:101b04009bb201328a42f9d119481a0a0275437507
:101b1400182104f0f1fb01f096fcb6e780210903db
:101b24009823114ad150b0e701f08dfc0d4b1b6a8c
:101b34005b78fd2ba9d101f086fc0a4b1b6a9a79cc
:101b4400587900021979091889b2dc782402987846
:101b5400001980b203f0b0fe97e701f074fc01f0c5
:101b640072fc92e7ac00002000600041702d002060
:041b7400ec30002031
:020000040000fa
:101b780070b5534b1b78002b00d070bd504b6422be
:101b88001a7000255d7001229a804e4cff320021a8
:101b9800200004f0d7fe4c4b1d6001f052fc484e6b
:101ba8004a4d7378042bfdd89b00eb589f46444b55
:101bb8001878002101f0fcf9454b1870012807d06e
:101bc800002001f04bff3e4a537801335370e8e799
:101bd8000023404a13703a4a13705370cde7384bcc
:101be8001878012101f0e4f9394b1870012807d061
:101bf8000022354b1a60324a537801335370d0e7cc
:101c08000023344a13702e4a13705370b5e700212d
:101c1800200001f0bdfa2c4a136801331360013427
:101c2800152bbedd264a537801335370b9e704f00b
:101c380005f9234b5b780133214a5370b1e7214cf6
:101c4800207a0002637a1843234b5843234902f051
:101c5800effc234b5862a07b0002e37b034321483f
:101c68005843214b9c466044204902f0e1fcc823bc
:101c7800db005843642102f0dbfc04000a2102f077
:101c880013fd042917d8164b9c62154c0a21a06a2b
:101c980002f0cefca0620b4b187d00025b7d18435e
:101ca800134b58430d4902f0c3fce062044b002279
:101cb8001a705a7061e70a34094b9c62e5e7c0461e
:101cc8006436002064350020603500203c68000040
:101cd80058340020c902002090140100ffff0000c2
:101ce8004801002010270000102778ecff7f000033
:041cf800ec130000e9
:020000040000fa
:101cfc00f0b583b0584d594e2f0006e06b460733b4
:101d0c001b78cc2b11d001f09afb6b46d81d03f03d
:101d1c0009fa041e00d199e001f091fb2b7f062bf0
:101d2c0000d990e09b00f3589f464b4b00221a833e
:101d3c00ff225a8301221a77e5e7474b6a4607329e
:101d4c0012785a8302221a7701f079fbdde76b4691
:101d5c0007331b781b02404a518b0b435383013bc7
:101d6c003f4a9bb2934205d803223b4b1a7701f0b2
:101d7c0066fbcae704f08efd01f061fb002467e00e
:101d8c00354c6b4607331b7863770123238304237d
:101d9c00237701f054fb638b012b07d0032bb4d8b2
:101dac0004f078fd01f04bfb002451e001f047fbff
:101dbc0001244de0284b6a4607321278da8302225e
:101dcc001a8305221a77a0e7234a6b4607331b7840
:101ddc001b02d18b0b43d38303231383062313776b
:101dec0093e73b8b7a8b9a4211d36a46d1791a4a84
:101dfc00106a84466344033b1970138b01339bb206
:101e0c001383528b9a4206d001f019fb7de704f044
:101e1c0041fd00241ce001f012fb0f4c618b0339d7
:101e2c00206a03f023ff050001f009fbe38bab42b2
:101e3c0005d001f004fb04f02dfd002408e001f0b6
:101e4c00fefa012404e004f025fd5ee701f0f7fa48
:101e5c00200003b0f0bdc046ac000020206700009d
:041e6c00420400002c
:020000040000fa
:101e700070b582b0554c564d26e06b4607331b7843
:101e80007a2b21d10122514b1a771de06b46073383
:101e90001b78a72b02d004f021fd15e04b4b00224c
:101ea000da831a8302221a770ee06b46d979474b00
:101eb0000a025a831a8b4748815401321a83da8bfb
:101ec0005218da8303221a776b46d81d03f094f96f
:101ed000002800d176e0237f092b70d89b00eb58b7
:101ee0009f466b46d87982b2384b598b1143598340
:101ef000198b384e705401311983d98b5218da83fb
:101f000004221a77e0e76b46d979304b59771a8b60
:101f10003048815401321a83da8b5218da83052251
:101f20001a77d1e7294a138b6946c8792949c854d9
:101f300001339bb21383d18b0918d183528b063a9c
:101f40009342c1db0622214b1a77bde76b4607336c
:101f50001b781b02204a138007221c4b1a77b3e719
:101f60001d4a6b4607331b7811880b4313800822e8
:101f7000164b1a77a8e76b4607331b78d32b02d092
:101f800004f0acfca0e70922104b1a779ce76b46e3
:101f900007331b783d2b02d004f0a0fc94e70b4bd9
:101fa000da8b0d4b1b889a4202d004f097fc8be72a
:101fb00001f04bfa054a137f0133137704e004f074
:101fc0008dfc81e701f041fa02b070bdf42e0020d3
:0c1fd000d4620000402f0020f02e002002
:020000040000fa
:101fdc0070b582b0554c564d26e06b4607331b78d6
:101fec007a2b21d10122514b1a771de06b46073316
:101ffc001b78a72b02d004f075fc15e04b4b00228c
:10200c00da831a8302221a770ee06b46d979474b92
:10201c000a025a831a8b4748815401321a83da8b8d
:10202c005218da8303221a776b46d81d03f010f985
:10203c00002800d176e0237f092b70d89b00eb5849
:10204c009f466b46d87982b2384b598b11435983d2
:10205c00198b384e705401311983d98b5218da838d
:10206c0004221a77e0e76b46d979304b59771a8bf3
:10207c003048815401321a83da8b5218da830522e4
:10208c001a77d1e7294a138b6946c8792949c8546c
:10209c0001339bb21383d18b0918d183528b063a2f
:1020ac009342c1db0622214b1a77bde76b460733ff
:1020bc001b781b02204a138007221c4b1a77b3e7ac
:1020cc001d4a6b4607331b7811880b43138008227b
:1020dc00164b1a77a8e76b4607331b78d32b02d025
:1020ec0004f000fca0e70922104b1a779ce76b4622
:1020fc0007331b783d2b02d004f0f4fb94e70b4b19
:10210c00da8b0d4b1b889a4202d004f0ebfb8be769
:10211c0001f095f9054a137f0133137704e004f0bd
:10212c00e1fb81e701f08bf902b070bd0c330020ac
:0c213c00246300008c320020543300208b
:020000040000fa
:1021480070b502224b4b1a7501f07bf94a4a4b4b8a
:102158009a8219000122cb681a42fcd001f071f969
:10216800464b00225a7404221a74db68db0706d433
:10217800424d012401f065f9eb681c42fad001f0e8
:1021880060f904223e4b9a713e4a3f4b5a6219004d
:1021980008224b681a42fcd13b4a41218423d15082
:1021a800344b202119633f21d96202202821585439
:1021b800364b1362110004224b681a42fcd14121ac
:1021c8008423314ad15010008421402243581a42b6
:1021d800fcd040218c232c4ad15010008c21402265
:1021e80043581a42fcd04021d423274ad15010002a
:1021f800d421402243581a42fcd04021d023224afd
:10220800d1501000d021402243581a42fcd040211e
:10221800cc231d4ad1501000cc21402243581a42e9
:10222800fcd04021c823184ad1501000c8214022b0
:1022380043581a42fcd04021c423134ad1501000fd
:10224800c421402243581a42fcd04021c0230e4ae0
:10225800d1501000c021402243581a42fcd04021de
:10226800e423094ad1501000e421402243581a427d
:10227800fcd070bd001000401a030000001400409c
:102288000008004005010400001c0040070102008e
:020000040000fa
:10229800f0b583b0494b1b78002b01d003b0f0bddb
:1022a800464b48221a7000245c7002229a80fe3243
:1022b8000021434804f046fb424b1c6001f0c1f882
:1022c8003e4e414d7378042bfdd89b00eb589f463a
:1022d8003a4b1878002100f06bfe3c4b187001282f
:1022e80007d0002001f0bafb344a53780133537009
:1022f800e8e70023364a1370304a13705370cde76d
:102308002e4b1878012100f053fe304b187001282d
:1023180004d02a4a537801335370d3e700232c4a58
:102328001370264a13705370b8e76b46df1d0021ff
:10233800380000f02dff3c7824020121380000f01d
:1023480027ff3b782343da09802149000a4213d149
:102358001b0a64214b43d2070ad41e4a536401f076
:1023680070f801f06ef8154a537801335370a9e7f5
:102378003233184a5364f2e780239b009b1a5b10a0
:1023880064214b43d20708d4124a5364114a80236c
:102398001b06516c0b435364e3e732330d4a536415
:1023a800f4e703f04bfd054b5b780133034a5370a8
:1023b80088e7024b00221a705a706fe764360020d3
:1023c800643500206035002064680000583400201f
:0823d800c902002048010020a9
:020000040000fa
:1023e000f0b5de4657464e464546e0b591b04a4dfb
:1023f0004a4b9a461c6836224949684604f08cfad2
:10240000e96d2a6e6b6e200003f058fcb227454b35
:1024100099461b689b46ea5b2c00b23463881b0418
:1024200013439846a288e3881b0413430f93238920
:10243000668936041e43be218c46ac446346362270
:102440000e936146684604f067fa41460f9a3300de
:10245000584603f033fc5246166836223049684627
:1024600004f05afae96d2a6e6b6e300002f028ff14
:102470004a4612689346ea5b63881b0419001143bd
:102480008846a288e3881b04190011430f91238911
:10249000668936041e4336220e99684604f03cfadb
:1024a00041460f9a3300584602f00aff5246106820
:1024b00003f026fc4a46106803f022fc52461668d8
:1024c00036221749684604f027fae96d2a6e6b6eca
:1024d000300001f0b9f94a461668ea5b63881b04cc
:1024e00013439846a388e5882d041d4323896489f6
:1024f00024041c4336220e99684604f00dfa414626
:102500002a002300300001f09ff911b03cbc904636
:102510009946a246ab46f0bd480100203800002095
:08252000b00100203c00002086
:020000040000fa
:1025280010b5484b1b8b002b03d0464a528b9a425e
:1025380000d010bd00f085ff424b1a6a1378d9b25b
:10254800ac291bd00bd9d9b2ad292bd0e0291bd18e
:102558003c4b5b8b102b3fd000f073ff14e0772bc4
:1025680012d100f06eff374b1b6adb78dab2f02a23
:1025780046d0f12a63d000f064ff05e0314b5b8b55
:10258800332b04d000f05dff04f090f9d1e703325b
:102598002d4b180030301178197001320133834205
:1025a800f9d1efe7274b5b8b0e2b02d000f049ffe8
:1025b800eae75178254b42241953907800020143e9
:1025c8001953d07a44215854117b40201952527b18
:1025d800120211431952e9e7507a1c4b382158541a
:1025e800907a39215854d07a3a215854507b3c215a
:1025f8005854907b3d215854d17b3e229954abe7e7
:1026080000f01fff2422124b1a600e4b5b8b282b05
:10261800bad100f016ff0b4b1a6a04320d4b0e4864
:1026280011781970013301328342f9d12423094a00
:102638002821d12000f070ff00f003ffa4e700f08c
:1026480000ffa1e77006002017010020d00000203d
:0c26580094060020700200209402002074
:020000040000fa
:1026640070b5444b1a8b5b8b9a4202d000d97be045
:1026740070bd002bfcd000f0e6fe3e4b5b7f5b2b75
:1026840049d0dab25b2a13d8502b36d0502a08d856
:10269400002b28d0012b64d100f0d5fe03f036facc
:1026a40023e0512b31d05a2b5bd102f093ff1ce075
:1026b400682b33d0dab2682a0ed85f2b22d0602b75
:1026c4004fd100f0c0fe2b4b5b8b012b20d002f0ce
:1026d40057ff02f0bdf808e07d2b0bd07e2b40d1d4
:1026e40000f0b1fe01e002f021ff00f0acfe04f0c6
:1026f400d5f8bde700f0a7fef7e700f0a4fefff76a
:102704005ff9f2e700f072ffefe701f057faece748
:1027140004f012f8dde703f01dfae6e700f093fe9b
:10272400144b1d6a6b1c144a2c0041341978117027
:1027340001330132a342f9d14123e95c09020f4874
:1027440041644223ec5c0c43446448308022d20050
:10275400002104f0f9f8a1b22800433002f036f960
:10276400c3e700f070fec0e700f06dfe04f096f8d9
:102774007ee7c046ac000020e81e0020e41e0020d6
:020000040000fa
:10278400f0b5c64600b53a4b186803f0b9ff394bab
:102794001b78002b2fd1374b51221a7000225a700c
:1027a40002219980344b1a60344b1a88344b1b88ad
:1027b4009b1a9bb21c1c102b00d91024a4b2121912
:1027c4002e4b1a8000f03ffe00239846294f2d4ed1
:1027d4007b78012b32d0002b10d0022bf9d103f0df
:1027e4002ffb244b00221a705a70244b1a88244b56
:1027f4001b889a4234d004bc9046f0bd1d4b187817
:10280400002100f0d7fb204b187001280fd01f4d7a
:102814002888000a01f024f9287801f021f92b888e
:10282400e3182b80134a537801335370d0e7002305
:10283400174a13700f4a13705370dce73368187823
:1028440001f00ef933680133336001239c46e04400
:10285400a045bddb074b5b780133064a5370b7e7ed
:1028640000f0f1fd024b186803f03cffc3e7c046db
:10287400a4000020643600205c350020a80000205d
:10288400a00000209c00002058340020a20000205a
:04289400c902002055
:020000040000fa
:10289800f7b58a8905000c00130760d44b68002b34
:1028a80004dc0b6c002b01dc0020febde76a002f66
:1028b800fad000232e682b6080235b011a4034d0a5
:1028c800606da3895b0706d56368c01a636b002b2c
:1028d80001d0236cc01a0200216a00232800e76a8d
:1028e800b847a189431c06d12b681d2b31d82c4a27
:1028f800da40d3072dd50023636023692360cb0416
:1029080005d5431c02d12b68002b00d16065616b93
:102918002e600029c8d023004433994202d02800f1
:1029280001f0b8fb00206063bfe70123216a28009b
:10293800b847431cc5d12b68002bc2d01d2b01d032
:10294800162b01d12e60afe74023a2891343a38140
:10295800abe740230b430120a3814042a5e70f6961
:10296800002fa1d00b680f60db1b01930023920797
:1029780000d14b69a360019b002b00dc94e7019b0d
:102988003a00216a2800a66ab047002803dc4023e1
:10299800a2891343dfe7019b3f181b1a0193eae75b
:0429a80001004020ca
:020000040000fa
:1029ac004c454654000000002d2d2d2d2d2d2d2d88
:1029bc002d2d2d2d2d2d2d2d2d2d2d2d2d2d2d2d3b
:1029cc002d2d25732d2d2d2d2d2d2d2d2d2d2d2ded
:1029dc002d2d2d2d2d2d2d2d2d2d2d2d2d2d0a0d5e
:1029ec00000000005249474854000000696e6974a9
:1029fc00583a202533640944656c7461583a202593
:102a0c0032640a0d696e6974563a202533640944a0
:102a1c00656c7461563a202532640a0d0000000082
:102a2c005374617475733a2000000000436f6d6538
:102a3c00696e670a0d0000004c656176696e670a65
:102a4c000d0000005061726b696e670a0d0000008a
:102a5c005061726b65640a0d00000000456d707466
:102a6c00790a0d00496e76616c69640a0d000000ec
:102a7c002d2d2d2d2d2d2d2d2d2d2d2d2d2d2d2d7a
:102a8c002d2d2d2d2d2d2d2d2d2d2d2d2d2d2d2d6a
:102a9c002d2d2d2d2d2d2d2d2d2d2d2d2d2d2d2d5a
:0c2aac002d2d2d2d2d2d2d2d0a0d00009f
:020000040000fa
:102ab800f0b5ce4600b582b005000c000192384b47
:102ac8001b78002b03d002b004bc9146f0bd344bf8
:102ad80051221a7000225a7002219980314b1a60d3
:102ae80000f0affc2b0a99462d4e2f4f7378042b1c
:102af800fdd89b00fb589f46294b1878002100f011
:102b080057fa2a4b187001280ad0484600f0a6ff49
:102b1800e8b200f0a3ff224a537801335370e5e787
:102b28000023234a13701e4a13705370cbe71c4bc3
:102b38001878012100f03cfa1c4b1870012804d0c9
:102b4800174a537801335370d0e70023184a13709b
:102b5800134a13705370b6e70021200000f018fbe9
:102b68000134104a136801331360019a013a934201
:102b7800bcdb0b4a537801335370b7e701212000bf
:102b880000f006fb03f05af9054b5b780133044a61
:102b98005370abe7024b00221a705a7093e7c04695
:102ba800643600206035002050680000583400204a
:042bb800c90200202e
:020000040000fa
:102bbc000020202020202020202028282828282001
:102bcc0020202020202020202020202020202020f9
:102bdc002088101010101010101010101010101061
:102bec001004040404040404040404101010101051
:102bfc00101041414141414101010101010101011b
:102c0c00010101010101010101010101101010106c
:102c1c0010104242424242420202020202020202ec
:102c2c000202020202020202020202021010101040
:102c3c002000000000000000000000000000000068
:102c4c000000000000000000000000000000000078
:102c5c000000000000000000000000000000000068
:102c6c000000000000000000000000000000000058
:102c7c000000000000000000000000000000000048
:102c8c000000000000000000000000000000000038
:102c9c000000000000000000000000000000000028
:102cac000000000000000000000000000000000018
:012cbc000017
:020000040000fa
:102cc000f0b585b0029003910192384b1e78002e2a
:102cd00003d00026300005b0f0bd18221a70002580
:102ce0005d7001229a80324cff320021200003f0f7
:102cf0002dfe304b1d6000f0a8fb2c4f7b78012b84
:102d000029d0002b0fd0022b3fd0032bf7d101216c
:102d1000200000f041fa03f095f8244b00221a70cd
:102d20005a700126d6e7214b1878002100f044f9ab
:102d3000214b1870012807d0029800f093fe1b4a1f
:102d4000537801335370d9e700231c4a1370174a94
:102d500013705370bee7154b1878012100f02cf961
:102d6000154b1870012809d00022124b1a600f4a27
:102d7000537801335370039c0025bfe700230f4aab
:102d800013700a4a13705370a4e7019b013b9d42e4
:102d900003db0322054b5a70b0e70021200000f04e
:102da000fbf901340135adb2a8e7c0466436002016
:102db000643500206035002058340020c90200200e
:020000040000fa
:102dc00010b5384b186803f09dfcfef7d5fe0022c5
:102dd000354b1a62a023354ad3581b051fd5a023b3
:102de000324ad358db0434d5a023304ad3589b044d
:102df00047d5a0232d4ad3585b0427d42a4c02235d
:102e00002362636a63602a4823695843fa21890070
:102e100001f012fc2060274ba360e36016e0224c17
:102e200008232362224823695843fa21890001f0cc
:102e300003fc2060204863695843fa21890001f0af
:102e4000fbfb6060636aa3601a4be36000f0fdfa6d
:102e500010bd154c04232362154823695843fa21f9
:102e6000890001f0e9fb2060134863695843fa21a7
:102e7000890001f0e1fb60600e4ba360636ae360d0
:102e8000e4e7094c01232362636a23600a4863690b
:102e90005843fa21890001f0cffb6060054ba36025
:102ea000e360d3e778000020480100200060004183
:0c2eb000fa090000b8820100b40900001b
:020000040000fa
:102ebc00f8b5ce46474680b5354b1c680022354bdd
:102ecc001a70354e354f350000e0002463001b1995
:102edc00db00334a9b5993420cd00134132cf4dca5
:102eec002b4b1b689c42f1d3294b1c600cbc9046ad
:102efc009946f8bd00f0a3faba6863001b19db0011
:102f0c00eb189b689a42e8d3244a9268d31a254a54
:102f1c009342e2d800f093fa00f091fa63001b1987
:102f2c00db001d4ad3185b7b002bd6d163001b1929
:102f3c00db00d3181969002906d063001b19db00cc
:102f4c00d318db7b002b0ed063001b19db00124a5d
:102f5c00d3189b7b002bc0d060000019c0008018d8
:102f6c0003f0bcfbb9e763001b19db0090469844e7
:102f7c00012342465373d3730b4a91461370434655
:102f8c005869884700234246d3734a461370dbe7df
:102f9c00b0040020b4040020d00200206c360020c5
:0c2fac0088884d43ffffff6fcc0200201f
:020000040000fa
:102fb800f0b5d6464f464646c0b50f004000c5b2ec
:102fc80003f070fa354a982380210906d1508021f0
:102fd800c905d1501e2403f0c9f9013c002cfad1cf
:102fe8002e4e94248023db05335103f0bff9802350
:102ff8001b06335103f0baf903f0b8f92c00002f7f
:1030080001d001242c430827244e98239846802376
:103018001b0699469a4619e08022d2059423f2505d
:1030280043465246f25003f0a1f994254b4673519a
:1030380000f007fa00f005fa8023db05735100f071
:1030480000fa6400e4b2013f002f07d063b2002bfe
:10305800e2da8023db054246b350e1e700f0f1f9fc
:1030680003f084f903f06ef90c4c80263606982399
:10307800e65003f07bf9a023e358094d5b00db0f12
:103088002b709423e65003f071f900f0daf92878f0
:103098001cbc90469946a246f0bdc046006000415f
:0430a8005834002078
:020000040000fa
:1030ac00f0b583b0324b5a69324b1a6000f0c7f955
:1030bc000025304e37000ae09a0718d41a0449d478
:1030cc00db064ed42a4b5c610135102d4cd001240b
:1030dc00ac4000f0b4f933682342f5d000f0aff9fe
:1030ec003b68da07e8d50122234b1a70eae700f0b7
:1030fc00a6f902f0a1fe0023204a1370537014337a
:10310c00ff331f4ad35c002b0ad06b46d91d80239a
:10311c000b700122212000f0edfb00f090f9d1e7bb
:10312c00130001211422ff32995400221c31ff316b
:10313c005a5004395a5004395a500023114a00216c
:10314c00022001f001fc104b186001f013fe00f09e
:10315c0076f9dae700f073f900f071f900f06ff925
:10316c00b0e700f06cf9ade700f069f903b0f0bd21
:10317c0000280040a4020020c90200206436002070
:0c318c0048010020814d0000c00400201c
:020000040000fa
:10319800f8b5ce46474680b504008946354a94239b
:1031a80080210906d1508021c905d15003f0caf801
:1031b80003f0dcf803f0daf80023237008252d4e1d
:1031c8009823984680273f0608e023780122134376
:1031d800237003f0cbf8013d002d13d023785b005a
:1031e800237003f0c3f84346f75003f0bff8a02359
:1031f800f3589422b7505b00e7d423780122934315
:103208002370e6e703f0b2f84b46012b1fd003f01a
:1032180049f9184c94258023db05635100f011f916
:1032280000f00ff900f00df900f00bf980263606d2
:103238009823e65003f09af8665103f097f800f0e7
:1032480000f90d4b18780cbc90469946f8bd03f070
:1032580079f8084c80252d069823e55003f086f868
:10326800a023e3585b00db0f034a13709423e55057
:0c327800e3e7c04600600041583400202d
:020000040000fa
:10328400364b70b51d6806000c00002d05d0ab69e7
:10329400002b02d1280001f0e3fe314b9c420fd1f8
:1032a4006c680c23e25e93b219072dd4d90611d4ad
:1032b40009233360402301201343a381404270bd9e
:1032c400284b9c4201d1ac68ebe7274b9c42e8d1e8
:1032d400ec68e6e75b0713d5616b002908d023008f
:1032e4004433994202d0300000f0d6fe00236363d9
:1032f4002422a3899343a381002363602369236069
:103304000823a2891343a3812369002b0bd1a02195
:103314008022a389890092000b40934203d02100ac
:10332400300001f0cffb0123a289134011d0002308
:10333400a36063695b42a361002023698342bed119
:103344000c23e25e1306bad540231343a38101384c
:10335400b5e7920700d46369a360ede76438002001
:0c3364005066000070660000306600003b
:020000040000fa
:10337000f7b5150001938a680b6900900c00934221
:1033800000da130022002b6043321278002a01d0a9
:1033900001332b6023689b0602d52b6802332b6018
:1033a000062723681f4027d0230043331b785a1e6b
:1033b00093412268920630d422000199433200984a
:1033c000089eb047431c25d0062320682a68e16880
:1033d00003400025042b03d18d1aeb43db171d405e
:1033e000a3682269934201dd9b1aed180027bd42b4
:1033f00020d1002010e00137e3682a689b1a9f4221
:10340000d2da22000123193201990098089eb047b0
:10341000431cf0d101204042febd3020e118433171
:10342000087021005a1c45310978a2184332023332
:103430001170c1e7220001231a3201990098089ef9
:0a344000b047431ce6d00137d1e786
:020000040000fa
:02344a007047c9
:020000040000fa
:10344c00f0b583b0314d324c2e0013e06b46073390
:10345c001b787f2b0ed17f222d4b1a7001222b4b08
:10346c001a7707e06b4607331b7863701b02738374
:10347c00022333776b46d81d01f086fe002842d01c
:10348c00fff7ddff2b7f012becd0002bded0022bc6
:10349c0004d0032b0fd003f011faebe76b46d9796c
:1034ac001b4b9970194b5a8b0a435a8303221a7778
:1034bc0000221a83dee7154a138b01339bb2138368
:1034cc001349c9186846073000788870528b9a42a5
:1034dc00d0d1fff7b4ff002400250d4f0b4e3b5d00
:1034ec005d40fff7acff0134338b0133a342f6dab6
:1034fc006b4607331b78ab4203d0fff7a0ff03f0fa
:10350c00ddf9fff79cff03b0f0bdc0467c14002032
:04351c00a4180020cf
:020000040000fa
:10352000f0b5314ca54401900f0014001e0001f0cd
:1035300045fb002e36d0351dadb202ab1f70002cfe
:1035400035d0002e07dd0133a11922781a7001341d
:103550000133a142f9d1711c02a802f08dfb0700d2
:10356000cc2001f035f9e8b201f032f9280a01f077
:103570002ff9019801f02cf9f8b201f029f93f0a6e
:10358000f8b201f025f9002c29d00136b1b202a819
:1035900002f064fefff759ff144b9d44f0bd370065
:1035a0000125dde702ab1f70002cf8d101250121b8
:1035b00002a802f061fb0400cc2001f009f9e8b296
:1035c00001f006f9280a01f003f9019801f000f969
:1035d000e0b201f0fdf8200ac0b201f0f9f80121d3
:1035e00002a802f03bfed5e7f4fbffff0c0400004d
:020000040000fa
:1035f00070b5284b1b6a1b78213b012b00d970bd8d
:10360000fff723ff802149039423234ad15000224e
:10361000224b1a600122224b1a60224bff229e216c
:103620005a549f215a54f4215a54f5215a54fff701
:103630000cff00231c4a0021fa20800001f08af9c7
:103640001a4b1860fff701ff124b1a6a0124184d3c
:103650001848115d631ee954115dc15401341f2cdb
:10366000f7d1fff7f2fefff7f0fe0a4b1a6a124d90
:103670001248115d23001f3be954115dc154013410
:103680003d2cf6d1fff7e1fefff7dffefff7ddfe91
:10369000b5e7c046ac00002000600041800000207b
:1036a0009800002048010020d90300009400002069
:1036b0001c2f0020c42f0020303300206c3100204c
:020000040000fa
:1036c000f8b505000e001400002804d08369002b13
:1036d00001d101f0c7fc294b9c4233d16c68a3692e
:1036e000a360a3891b0737d52369002b34d00c2393
:1036f000e25e80239b01f7b2f6b21a4236d023680d
:103700002269981a6369984205db2100280001f0bc
:10371000b9fe002826d1a3680130013ba3602368cd
:103720005a1c22601f706369984204d0a389db078a
:103730001ad50a2e18d12100280001f0a3fe002876
:1037400012d00fe00e4b9c4201d1ac68c7e70d4b85
:103750009c42c4d1ec68c2e721002800fff792fd2b
:103760000028c4d0012676423000f8bd1343a3815f
:10377000226e054b13402366c1e7c0465066000029
:0c3780007066000030660000ffdffffff5
:020000040000fa
:10378c00032370b5cd1c9d43083506000c2d1ed2ad
:10379c000c25a9421dd8300002f023ff254a1468dd
:1037ac002100002919d1244c2368002b03d13000af
:1037bc0002f0acfe20602900300002f0a7fe431c92
:1037cc002cd10c233000336003f031f803e0002dd2
:1037dc00dfda0c233360002070bd0b685b1b1ad43e
:1037ec000b2b03d90b60cc18256003e08c420ed157
:1037fc0063681360300003f01af8200007220b30c6
:10380c00231d9043c31ae7d05a42e250e4e74b68b9
:10381c0063600c00eee70c004968c2e70323c41c8c
:10382c009c43a042e0d0211a300002f06ffe431cf2
:0c383c00dad1c6e7683800206c380020a4
:020000040000fa
:1038480084b030b583b0040007a8079108920993a3
:10385800837d002b1bd025490800083002f046fc68
:103868000222a35e0421625e0020215e0625605fbd
:1038780000901e484c3002f039fc1d4802f036fc1e
:10388800237a062b0ed89b001a4ad3589f4617480e
:1038980001004431083002f029fce1e714480c30fb
:1038a80002f024fc1248503002f020fc002003b043
:1038b80030bc08bc04b018470d48183002f016fc9c
:1038c800f0e70b48243002f011fcebe708483030f1
:1038d80002f00cfce6e706483c3002f007fce1e7a2
:1038e8000348443002f002fcdce7c046ac29000083
:0838f8002c2a000058670000b3
:020000040000fa
:10390000f0b585b0029001911500274b1e78002e6e
:1039100003d00026300005b0f0bd18221a70002236
:103920005a7001229a80fff790fd019b03930027b4
:103930001d4c6378012b26d0002b09d0022bf9d126
:1039400002f080fa184b00221a705a700126e1e743
:10395000154b18780021fff72ffb144b1870012826
:103960000ad0029800f07ef80f4a53780133537062
:10397000019b03930027dce700230d4a13700a4ada
:1039800013705370c6e7bd4203d80223064a537032
:10399000cfe7039b187800f065f8039b013303938e
:1039a0000137bfb2c5e7c046643600205834002056
:0439b000c902002028
:020000040000fa
:1039b400f0b5c64600b58eb00400837e002b27d038
:1039c400254b1b6898468388c7883f041f43038997
:1039d400468936041e438389c5892d041d4301008d
:1039e40010313622684602f095ff390032002b0070
:1039f400404601f0ebfe431e9841c0b2002826d198
:103a040000224a23e25400200eb004bc9046f0bdcc
:103a1400124b1b6898468388c7883f041f43038959
:103a2400468936041e438389c5892d041d4301003c
:103a340010313622684602f06dff390032002b0047
:103a4400404601f0c3fe431e9841c0b2d6e70122ae
:103a54004a23e2540120d7e7380000203c0000202c
:020000040000fa
:103a6400f0b5d6464f464646c0b5040002f01cfdec
:103a740002f07efc0827244e9823984680231b06d8
:103a840099469a4619e08023db054246b3504346e3
:103a94005246f25002f06cfc94254b467351fff7ea
:103aa400d2fcfff7d0fc8023db057351fff7cbfc7e
:103ab4006400e4b2013f002f07d063b2002be2dbc5
:103ac4008022d2059423f250e1e7fff7bcfc02f018
:103ad4004ffc02f039fc0c4c802636069823e65045
:103ae40002f046fca023e358084d5b00db0f2b706b
:103af4009423e65002f03cfcfff7a5fc28781cbc9c
:103b040090469946a246f0bd00600041583400201a
:020000040000fa
:103b140070b582b0284c2600250004e06b460733bc
:103b24001b78cc2b0fd06b46d81d01f0cdfa0028a2
:103b34003dd0237f012b0dd0002befd0022b1ad0c8
:103b440002f0b6feefe700232b83ff236b830123f0
:103b54002b77e8e76b4607331b78642b05d8802b5b
:103b640006d8738302233377dde702f0a1fedae798
:103b740002f09efed7e7fff766fc0f4b1b8b7f2bf3
:103b840017d80d4a528b9a4213d36a46d1790a4afe
:103b9400106ac154138b01339bb21383528b9a4224
:103ba400c1d1fff750fcfff74efcfff74cfc02b00d
:0c3bb40070bd02f07dfeb6e77006002038
:020000040000fa
:103bc00010b5224b1b6a1b78123bdab2262a12d898
:103bd00093001f4ad3589f46fff737fc1d4c200027
:103be00001f072fffff731fc2200303a3823122136
:103bf000d120fff795fc10bd174c56232200212140
:103c0000d120fff78dfc2200563256232221d120ed
:103c1000fff786fcefe7114c200001f055ff220072
:103c20000c3a14233021d120fff77afce3e70c2370
:103c30000b4a3821d120fff773fcdce72423094a23
:103c40001321d120fff76cfcd5e7c046ac00002063
:103c5000103d000078010020a00100209801002004
:083c60006c0100204c02002061
:020000040000fa
:103c6800f8b5fff7eefbbff35f8f62b6fff7e9fb2e
:103c7800224bc22292009958214e3140c02424027e
:103c88002143995080218900196099581d4d294078
:103c9800c0200004014399508021c9001960995837
:103ca8000902090ac0273f063943995080221201a8
:103cb8001a60c32292009958ff27b943c027394395
:103cc800995080214901196099580e4034439c50fd
:103cd80080218901196099580d4028439850802205
:103ce800d2011a60c02189005a581202120a5a5089
:103cf80008221a60fff7a5fbf8bdc04600e100e006
:083d0800ff00ffffffff00ffb9
:020000040000fa
:103d1000d83b00003c3c0000f63b0000f63b0000b6
:103d2000f63b0000f63b0000f63b0000f63b0000cf
:103d3000f63b0000f63b0000f63b0000f63b0000bf
:103d4000f63b0000f63b0000f63b0000f83b0000ad
:103d5000f83b0000f63b0000f63b0000f63b00009d
:103d6000f63b0000f63b0000f63b0000f63b00008f
:103d7000f63b0000f63b0000f63b0000f63b00007f
:103d8000f63b0000f63b0000163c0000f63b00004e
:103d9000f63b0000f63b0000f63b0000f63b00005f
:0c3da000f63b0000f63b00002e3c00004b
:020000040000fa
:103dac0010b51d4b186802f0a7fc1c4b1b78da07ea
:103dbc0012d5802080028a22520019498850032b88
:103dcc0005d90c2b17d0154b1b780d2b1dd8134a6e
:103ddc0013780133137010bd802080028c225200a6
:103dec000f498850032bf2d900210e4a1170012182
:103dfc000d4a9175e5e70d4b1b78002be7d0782227
:103e0c000b49822001f022f8dde70023094a012149
:103e1c000a2000f099fddae7b4020020b802002075
:103e2c0000600041c102002000080042c2020020d4
:083e3c00d0000020855d0000ac
:020000040000fa
:103e440010b51c4b012256215a5457215a54332180
:103e54003b229954184b194a1a60194a9a81c02274
:103e640092025a601a00d369002bfcd1124a1368db
:103e740002210b431360d369002bfcd104220e4ba7
:103e84009a75fff7e0fa0f4b0f4a1a600f4ada608f
:103e94000f4a1a6200221a72da809a8002f012fd26
:103ea400fff7d1fad122d20000210a4802f04cfdda
:103eb40010bdc04600600041000c004204011040e7
:103ec4004ff1ffff7c14002070290020a41400206f
:083ed400a4180020e41e0020e8
:020000040000fa
:103edc0070b5214b1b8b002b03d01f4a528b9a427f
:103eec0000d070bdfff7abfa1c4bdb78dab2a12a1d
:103efc0004d0a22a13d002f0e1fcf2e7fff79ffafc
:103f0c00174b164a117959805179197092795a7058
:103f1c00144b186802f0e2fbfff791faebe7fff79e
:103f2c008efa0d4b5e8b023e301e0d4b5e640bd039
:103f3c0000230b4d094cea184832e118097911702d
:103f4c0001339bb29842f6d83200483292b20449ff
:103f5c00e82000f0a1fecee77c140020a41800207d
:083f6c00e41e00206c2500207a
:020000040000fa
:103f740010b51b4b01224c215a544d215a54332164
:103f840036229954174b184a1a60184a9a81c0224b
:103f940092025a601a00d369002bfcd1114a1368ab
:103fa40002210b431360d369002bfcd104220d4b77
:103fb4009a75fff748fa562200210d4802f0c4fc16
:103fc4000c4b0d4a1a600d4ada600d4a1a6200223f
:103fd4001a72da809a8002f07ffcfff734fa10bd7f
:103fe4000060004100100042040110404ff1ffff47
:103ff400a0010020f42e0020e42f0020f02d00204a
:04400400402f002029
:020000040000fa
:1040080010b51b4b01224e215a544f215a542221dc
:1040180037229954174b184a1a60184a9a81c022b5
:1040280092025a601a00d369002bfcd1114a136816
:1040380002210b431360d369002bfcd104220d4be2
:104048009a75fff7fef9562200210d4802f07afc16
:104058000c4b0d4a1a600d4ada600d4a1a620022aa
:104068001a72da809a8002f03ffcfff7eaf910bd75
:104078000060004100140042040131404ff1ffff8d
:10408800f60100200c330020583300208c3100202a
:044098008c32002046
:020000040000fa
:10409c0070b50500002910d00c1f2368002b00da26
:1040ac00e418280002f09dfa1d4a1368002b05d174
:1040bc0063601460280002f0bafb70bda34209d9fa
:1040cc00216860188342f3d118685b68411821603d
:1040dc00eee713005a68002a01d0a242f9d91968f8
:1040ec005818a0420bd12068091858181960824240
:1040fc00e0d110685268411819605a60dae7a042a2
:10410c0002d90c232b60d5e721686018824203d1b9
:10411c00106852684118216062605c60cae7c04652
:04412c0068380020cf
:020000040000fa
:1041300070b5214b1900103100221a7001338b42e7
:10414000fbd11d4c062221000220fef7b9fdfff72e
:104150007cf9607800022378184302f099fa050090
:10416000e0780002a378184302f092fa0600607922
:1041700000022379184302f08bfa8a235b000f4a6e
:10418000d3589d4202d98a235b00d5508c235b0013
:104190000a4ad3589e4202d98c235b00d6508e2304
:1041a0005b00064ad358984202d98e235b00d05058
:1041b000fff74bf9012070bdc40400204801002026
:020000040000fa
:1041c00010b5fff742f9214b9b7d002b02d1fff781
:1041d0003cf910bdfff739f91c4b9b7ddb0703d57c
:1041e0001a4b1b7edb071ed4184b9b7d5b0703d548
:1041f000164b1b7e5b071dd4144b9b7d9b0703d581
:10420000124b1b7e9b071cd4104b9b7d5bb2002b7b
:10421000ddda0e4b1b7e5bb2002bd8dafff715f907
:10422000fff713f9d3e7fff710f901f021fbfff7d0
:104230000cf9d9e7fff709f901f0f8f9fff705f9eb
:10424000dae7fff702f9fff700f9dde700040042c3
:020000040000fa
:1042500010b5fff7faf8214b9b7d002b02d1fff739
:10426000f4f810bdfff7f1f81c4b9b7ddb0703d57d
:104270001a4b1b7edb071ed4184b9b7d5b0703d5b7
:10428000164b1b7e5b071dd4144b9b7d9b0703d5f0
:10429000124b1b7e9b071cd4104b9b7d5bb2002beb
:1042a000ddda0e4b1b7e5bb2002bd8dafff7cdf8c0
:1042b000fff7cbf8d3e7fff7c8f801f08bf8fff76b
:1042c000c4f8d9e7fff7c1f801f0daf9fff7bdf854
:1042d000dae7fff7baf8fff7b8f8dde700080042c1
:020000040000fa
:1042e00010b5fff7b2f8214b9b7d002b02d1fff7f1
:1042f000acf810bdfff7a9f81c4b9b7ddb0703d57d
:104300001a4b1b7edb071ed4184b9b7d5b0703d526
:10431000164b1b7e5b071dd4144b9b7d9b0703d55f
:10432000124b1b7e9b071cd4104b9b7d5bb2002b5a
:10433000ddda0e4b1b7e5bb2002bd8dafff785f877
:10434000fff783f8d3e7fff780f801f0ddfafff716
:104350007cf8d9e7fff779f801f0bcf9fff775f8b9
:10436000dae7fff772f8fff770f8dde7000c0042bc
:020000040000fa
:1043700010b5fff76af8214b9b7d002b02d1fff7a8
:1043800064f810bdfff761f81c4b9b7ddb0703d57c
:104390001a4b1b7edb071ed4184b9b7d5b0703d596
:1043a000164b1b7e5b071dd4144b9b7d9b0703d5cf
:1043b000124b1b7e9b071cd4104b9b7d5bb2002bca
:1043c000ddda0e4b1b7e5bb2002bd8dafff73df82f
:1043d000fff73bf8d3e7fff738f801f0bbfafff738
:1043e00034f8d9e7fff731f801f09ef9fff72df81f
:1043f000dae7fff72af8fff728f8dde700100042b8
:020000040000fa
:1044000010b5fff722f8214b9b7d002b02d1fff75f
:104410001cf810bdfff719f81c4b9b7ddb0703d57b
:104420001a4b1b7edb071ed4184b9b7d5b0703d505
:10443000164b1b7e5b071dd4144b9b7d9b0703d53e
:10444000124b1b7e9b071cd4104b9b7d5bb2002b39
:10445000ddda0e4b1b7e5bb2002bd8dafef7f5ffe0
:10446000fef7f3ffd3e7fef7f0ff01f099fafef74e
:10447000ecffd9e7fef7e9ff01f080f9fef7e5ff71
:10448000dae7fef7e2fffef7e0ffdde700140042a7
:020000040000fa
:10449000204a214b70b50021934203d21970013399
:1044a0009342fbd1002503261c4803684168002b7a
:1044b00018d100292dd083680c30002b18d0002390
:1044c0000022845c9c5401328a42fad333000b40b0
:1044d0005a1e934189085918890040180368416899
:1044e000002be6d082680c30002a07d10029dcd0ee
:1044f00059181d7001338b42fbd1d6e70029dfd15b
:1045000033000b405a1e93418908591889004018fe
:10451000e4e770bd7c36002000000020c8000000e9
:020000040000fa
:1045200070b504001e4b1b78002b00d070bd1c4bd7
:1045300064221a7000225a7001229a80fef785ffc9
:10454000174d6b78012b23d0002b06d0022bf9d10d
:10455000134b00221a705a70e8e7114b18780021ab
:10456000fef72afd0f4b187001280ad00120fff733
:1045700079fa2000fff776fa094a5378013353702d
:10458000dfe70023084a1370054a13705370cde724
:1045900001f058fc024b5b780133014a5370d0e7bd
:0c45a0006436002058340020c9020020be
:020000040000fa
:1045ac0010b51a4b0122ac2149005a5401315a540e
:1045bc0022213c32ff329954154b164a1a60164a86
:1045cc009a81c02292025a601a00d369002bfcd146
:1045dc000f4a136802210b431360d369002bfcd1e3
:1045ec0004220b4b9a75fef72aff0c4b0c4a1a60ef
:1045fc000c4ada600c4a1a6200221a72da809a802b
:10460c0002f052f9fef71bff10bdc04600600041de
:10461c0000040042040131404ff1ffff70060020fe
:0c462c00700500201807002098060020f0
:020000040000fa
:10463800002934d00123002210b488422cd301244d
:104648002407a14204d2814202d209011b01f8e7e2
:10465800e400a14204d2814202d249005b00f8e79b
:10466800884201d3401a1a434c08a04202d3001bc7
:104678005c0822438c08a04202d3001b9c082243fa
:10468800cc08a04202d3001bdc082243002803d038
:104698001b0901d00909e3e7101c10bc704701b5dc
:1046a800002002f0abf902bd0029f8d003b5fff7ee
:0c46b800c1ff0ebc4243891a1847c046df
:020000040000fa
:1046c40010b5194b012252215a5453215a54222114
:1046d40039229954154b164a1a60164a9a81c022f7
:1046e40092025a601a00d369002bfcd10f4a136856
:1046f40002210b431360d369002bfcd104220b4b22
:104704009a75fef7a0fe0c4b0c4a1a600c4ada604c
:104714000c4a1a6200221a72da809a8002f0bef8f9
:10472400fef791fe10bdc046006000410008004243
:10473400040131403bf1ffffac0000206410002075
:08474400600c00201c0800209d
:020000040000fa
:10474c0010b5194b186801f0d7ff184b1b691848a6
:10475c005843fa218900fff769ff0400154b984272
:10476c0000d8154c114b5b6914485843fa21890049
:10477c00fff75cff0f4b984200d80f480c230b4af5
:10478c00126a1a4206d1844207d980210903942364
:10479c000b4ad150fef753fe10bd8021090398231c
:1047ac00074ad150f6e7c046e40400204801002037
:1047bc00fa090000371800000f270000b4090000a8
:0447cc000060004148
:020000040000fa
:1047d00070b50400fef739fe1b4b1b7d002b13d078
:1047e0001a4b1b780020002b29d10122184b9a75f7
:1047f000fef72bfe144b1b7d002b05d0124dfef750
:1048000024fe2b7d002bfad1104b1b78002b02d1fc
:1048100001220f4b9a750c4a538ad168cc54538aa3
:1048200001339b059b0d5382128a9a4208d0074b95
:104830001b780120002b02d10122054b9a7570bd17
:104840000122014b1a75f2e7ac000020c1020020e2
:04485000000800421a
:020000040000fa
:1048540070b51e4d280001f035f9cc2000f030fb76
:104864000e2000f02dfb602000f02afb002000f059
:1048740027fb002000f024fb002000f021fb002097
:1048840000f01efb002000f01bfbf82000f018fbda
:104894002c00203c287800f013fb2123e05c00f07e
:1048a4000ffb2223e05c00f00bfb002000f008fb70
:1048b4002423e05c00f004fb2523e05c00f000fb13
:1048c4002623e05c00f0fcfa70bdc046f000002036
:020000040000fa
:1048d400f8b51e4b07001e68b369002b02d13000e7
:1048e40000f0befb4836b4687368013b04d53368f6
:1048f400002b07d03668f6e70c22a55e002d0dd0fc
:104904006434f2e70421380001f03afc30600028f6
:10491400f0d10c2304003b602000f8bd01235b426e
:10492400e381200001232566a3812560a5606560dd
:1049340025616561a56108222900583002f004f858
:104944006563a563a564e564e6e7c046086a0000fc
:020000040000fa
:10495400f0b585b00090019102920393184b194a67
:10496400126800259a4212d1fef76dfd164e0125fc
:10497400134c3368a3420ad1fef765fd013518369e
:10498400142df6d100230093009805b0f0bd0d4e10
:104994006c006319db00f718009b7b6000973800fc
:1049a40001f08efa6319db00054a9a516b461b79b4
:1049b400bb73029b3b61039b7b610022fa73e3e7b9
:0c49c40088884d43d0020020e80200204b
:020000040000fa
:1049d00070b505000c00fef738fd1a4b7e221a70e8
:1049e00000225a709a70a222da70201e28dd00235d
:1049f000144ee95c9a19117101338342f9db1249b3
:104a00006118104bc91a8eb20804000c821e1212d3
:104a10005a700239997000221a54002808ddc5180e
:104a200019000a5c1c7862400a5401339d42f8d197
:104a30000136b1b2034801f025fcfef706fd70bd5a
:0c4a40000149dee77025002074250020ed
:020000040000fa
:104a4c00f0b585b001900e00140001f09bfe01281a
:104a5c001ad1731efe2b17d8050002ab1e7100274e
:104a6c00af4220d003abd95da368013ba360002b00
:104a7c0004daa269934219db0a2917d023685a1c5d
:104a8c00226019700137ebe723003200583303a979
:104a9c00019800f0a5ff0500431ce0d1402306005f
:104aac00a2891343a381300005b0f0bd2200019808
:0c4abc00fef700fe431ce5d10600f4e705
:020000040000fa
:104ac800f7b502268b8905000c00334206d0230077
:104ad80047332360236101236361f7bd01ab6a4655
:104ae80000f09afe009907002800fef74bfe002808
:104af80006d10c22a35e9a05efd41e43a681e6e7f1
:104b08000d4bab628023a28920601343a381009bd5
:104b180020616361019b002b0ad00e23e15e28000f
:104b280001f03efd002803d00123a2891343a3818d
:0c4b3800a0893843a081d0e75d6900002f
:020000040000fa
:104b440010b5cc2000f0bcf9032000f0b9f92c20fa
:104b540000f0b6f9002000f0b3f9002000f0b0f93d
:104b6400cc2000f0adf9032000f0aaf92d2000f0cc
:104b7400a7f9002000f0a4f9002000f0a1f9cc204e
:104b840000f09ef9072000f09bf9602000f098f9ee
:104b9400002000f095f9002000f092f9002000f0c8
:104ba4008ff9002000f08cf9002000f089f9f92039
:064bb40000f086f910bdbf
:020000040000fa
:024bba00704742
:020000040000fa
:104bbc0010b5144b802189028c2252009950083276
:104bcc009b581b0503d4104b1b78002b00d010bd39
:104bdc0001230e4a13750c4a13700d4a13700d4abb
:104bec00137078220c49822000f030f900230b4a14
:104bfc000021c820fff7a8fe094b1860fff7d0f87a
:104c0c00e5e7c04600600041b80200200008004201
:104c1c00c1020020c2020020d0000020ad3d0000e7
:044c2c00b4020020ae
:020000040000fa
:104c300010b5194b1b8800209b0705d4164a138812
:104c400001210b4313800120134901220b691a42f1
:104c5000fcd1124a104b1a80190002220b691a4229
:104c6000fcd1012800d010bd0d4c37222023e25486
:104c700005232122a3542222a3542422a354252213
:104c8000a3542622a354206a616a00f077fb200017
:104c9000203000f019ffe6e7002400400aabffffd8
:044ca000d000002020
:020000040000fa
:104ca400f0b583b0070001911400fff785ff002cd5
:104cb4001ed0e61cb6b22100019800f0dbff05000f
:104cc400cc20fff783fdf0b2fff780fd300afff739
:104cd4007dfd3800fff77afde8b2fff777fd2d0a76
:104ce400e8b2fff773fd2100019801f0b5fa0be07b
:104cf400cc20fff76bfd0120fff768fd0020fff7d4
:104d040065fd3800fff762fdfef79dfb03b0f0bdc3
:020000040000fa
:104d140070b5184b1900103100221a7001338b4200
:104d2400fbd1144c062221000220fdf7c7fffef739
:104d34008afb607800022378184301f0a7fc0e4d2b
:104d440082235b00e850e0780002a378184301f066
:104d54009dfc84235b00e8506079000223791843aa
:104d640001f094fc86235b00e850fef76cfb012005
:0c4d740070bdc046c404002048010020af
:020000040000fa
:104d800010b5174b186801f0bdfc164b186801f000
:104d9000b9fcfff7cdf9fef758fb1423ff33124a95
:104da000d35c642b05d801331422ff320e498b5497
:104db00010bd0b4b186801f097fc0b4c002214231c
:104dc000ff33e25420002130ff3000f07dfe621df1
:104dd000ff3224231321d120fef7a2fbe8e7c046cf
:0c4de000c0040020d40400204801002082
:020000040000fa
:104dec0010b50622174b5a6001f048fbfdf7a6f9e7
:104dfc0001f068fb78220021134801f0a1fd01f0bd
:104e0c00b5fdfff7d4fefef71afbfff7c9fbfff762
:104e1c0053fcfff711f8fff7a7f8fff7eff800f0d6
:104e2c00ebfffff7fffefef719fffef708fb00f0a4
:104e3c0071fa01f0f9f9fcf7d5f8fef700fb01f077
:0c4e4c00e1fb10bd00400041d000002040
:020000040000fa
:104e5800f0b583b007000191141e1ed0d61cb6b25f
:104e68001100019800f004ff0500cc20fff7acfc0e
:104e7800f0b2fff7a9fc300afff7a6fc3800fff7ed
:104e8800a3fce8b2fff7a0fc2d0ae8b2fff79cfcf0
:104e98002100019801f0def90be0cc20fff794fc2b
:104ea8000120fff791fc0020fff78efc3800fff788
:0a4eb8008bfcfef7c6fa03b0f0bd54
:020000040000fa
:024ec200704737
:020000040000fa
:104ec40070b50500fef7bffa154b1b7d002b13d1ff
:104ed4000122144b9a75124b5a8ad9688d54598af7
:104ee4000131ff220a405a821b8a934214d00122c4
:104ef4000c4b9a75012070bd01220a4b9a75fef77e
:104f0400a2fa074b1b7d002be2d0054cfef79bfa5f
:104f1400237d002bfad1dbe70122014b1a75e6e76a
:084f24007006002000040042a9
:020000040000fa
:104f2c0070b50500fef78bfa154b1b7d002b13d1ca
:104f3c000122144b9a75124a538ad168cd54538a64
:104f4c0001339b059b0d5382128a9a4214d0012285
:104f5c000c4b9a75012070bd01220a4b9a75fef715
:104f6c006efa074b1b7d002be2d0054cfef767fa5f
:104f7c00237d002bfad1dbe70122014b1a75e6e702
:084f8c007c140020000c00421f
:020000040000fa
:104f940070b50500fef757fa154b1b7d002b13d196
:104fa4000122144b9a75124b5a8ad9688d54598a26
:104fb4000131ff220a405a821b8a934214d00122f3
:104fc4000c4b9a75012070bd01220a4b9a75fef7ad
:104fd4003afa074b1b7d002be2d0054cfef733fa5f
:104fe400237d002bfad1dbe70122014b1a75e6e79a
:084ff400f42e00200010004221
:020000040000fa
:104ffc0070b50500fef723fa154b1b7d002b13d162
:10500c000122144b9a75124b5a8ad9688d54598abd
:10501c000131ff220a405a821b8a934214d001228a
:10502c000c4b9a75012070bd01220a4b9a75fef744
:10503c0006fa074b1b7d002be2d0054cfef7fff95f
:10504c00237d002bfad1dbe70122014b1a75e6e731
:08505c000c3300200014004297
:020000040000fa
:10506400836913b50400002b28d18364c3640365ea
:10507400134b144a1b6882620193984201d10123a5
:1050840083612000fff724fc60602000fff720fc10
:10509400a0602000fff71cfc0022e060042160688f
:1050a40000f0a0fd01220921a06800f09bfd02226e
:1050b4001221e06800f096fd0123a36113bdc046f0
:0850c400086a00005d690000ac
:020000040000fa
:1050cc0070b50500154bda889b889a421ed00422d5
:1050dc00134b1a75fef7b3f9104b9a8819688a5c52
:1050ec002a7099880131ff220a409a801b7a002b82
:1050fc0006d00a4bdb88934202d00022074b1a726f
:10510c000422074b9a750124200070bd034b1c7ab6
:10511c00002cdcd1fef793f9f6e7c04670060020b0
:04512c000004004239
:020000040000fa
:1051300070b50500154bda889b889a421ed0042270
:10514000134b1a75fef781f9104a93881168cb5cee
:105150002b70938801339b059b0d9380127a002a54
:1051600006d00a4ad2889a4202d00022074b1a720d
:105170000422074b9a750124200070bd034b1c7a52
:10518000002cdcd1fef761f9f6e7c046ac00002048
:0451900000080042d1
:020000040000fa
:1051940070b50500154bda889b889a421ed004220c
:1051a400134b1a75fef74ff9104a93881168cb5cbc
:1051b4002b70938801339b059b0d9380127a002af0
:1051c40006d00a4ad2889a4202d00022074b1a72a9
:1051d4000422074b9a750124200070bd034b1c7aee
:1051e400002cdcd1fef72ff9f6e7c0467c14002032
:0451f400000c004269
:020000040000fa
:1051f80070b50500154bda889b889a421ed00422a8
:10520800134b1a75fef71df9104b9a8819688a5cba
:105218002a7099880131ff220a409a801b7a002b54
:1052280006d00a4bdb88934202d00022074b1a7241
:105238000422074b9a750124200070bd034b1c7a89
:10524800002cdcd1fef7fdf8f6e7c046f42e00206e
:045258000010004200
:020000040000fa
:10525c0070b50500154bda889b889a421ed0042243
:10526c00134b1a75fef7ebf8104b9a8819688a5c89
:10527c002a7099880131ff220a409a801b7a002bf0
:10528c0006d00a4bdb88934202d00022074b1a72dd
:10529c000422074b9a750124200070bd034b1c7a25
:1052ac00002cdcd1fef7cbf8f6e7c0460c3300201f
:0452bc000014004298
:020000040000fa
:1052c00084b010b5039104920593ccb2002c13d096
:1052d0000622835e5a1d16db052b17dc03aa928c6f
:1052e000002a02d04268002a13d005339bb20a2b51
:1052f00012d90623037201e005230372002010bcbb
:1053000008bc04b0184700230372f7e701230372b7
:0e531000f4e704230372f1e703230372eee7d0
:020000040000fa
:02531e00fee7a8
:020000040000fa
:105320000122134b1a7019000b8c1342fcd1114b44
:105330001b681a02e021c9000a409b065b0f134359
:105340000b4a9385002353700821517305219170f6
:105350005381138c9bb2002bfbd1074b0022da61e7
:105360009a615a611a61aa2149005a507047c04691
:0c53700000300042206080004801002056
:020000040000fa
:10537c0070b582b0031c0600050000900c1c0a00de
:10538c0001919b068802800e0343b603f021890429
:10539c000e4033436d00f82189030d402b43240349
:1053ac00f82149020c4023439208fc2109010a40d0
:1053bc001343044a9361110008220b691a42fcd171
:0853cc0002b070bd0024004096
:020000040000fa
:1053d40010b5124b598a1b8a994214d00f4ad068cf
:1053e400c45c0f48048501339b059b0d1382002088
:1053f4001075994206d00b4b1b78002b02d1012269
:10540400074b9a7510bd054a127d002ae6d1012288
:10541400034b1a75fef717f8f4e7c046ac000020fa
:0854240000080042c102002053
:020000040000fa
:10542c0010b50e4b002b00d098470d4b002b00d025
:10543c009847fff727f80b4aff210b4b8b439360e0
:10544c000a4b98470a4b002b00d09847094b002b6e
:10545c0000d09847fbf7dcfffee7c04600000000d9
:10546c000000000000ed00e000000000a15b000067
:08547c00000000000000000028
:020000040000fa
:105484000b6970b505000c00002b01d1002070bd24
:10549400002804d08369002b01d1fff7e1fd0b4bf9
:1054a4009c4209d16c680c22a35e002beed0210033
:1054b4002800fdf7eff9eae7054b9c4201d1ac68ff
:1054c400f1e7044b9c42eed1ec68ece75066000037
:0854d400706600003066000064
:020000040000fa
:1054dc0010b5114a137801210b43137011000122ee
:1054ec004b681a42fcd10c4b1a7810210a431a70e3
:1054fc000a4ada61802292051a62094a9a611a6193
:10550c001a7802210a431a70190002224b681a42b7
:10551c00fcd1fdf794ff10bd0028004022002200b2
:04552c0033800000c8
:020000040000fa
:1055300010b5fdf78aff114b196a0b78002b02d0ca
:10554000fdf783ff10bd0d4b5a8b0d4804680134e5
:1055500004600c700168090a1c6a617041881c6a49
:10556000a170c178186ac170033a92b2196a587f63
:105570008038c0b2fff796fbe2e7c046ac000020df
:04558000bc04002047
:020000040000fa
:1055840010b5fdf760ff114b1b6a1978104c2022ef
:10559400a15459782122a15499782222a154d9786e
:1055a4002422a15419792522a1545a792623e2549c
:1055b400206a616afff7e0fefdf745ff2000203016
:1055c40000f080fafdf73fff10bdc046ac0000209c
:0455d400d0000020e3
:020000040000fa
:1055d80010b50f4c236a1a780e48028059780902d0
:1055e8000a430280da7812029b7813430a4a13802e
:1055f800fdf727fffdf725ff236a0433074a1360e9
:105608000022074b1a8001f05df8fdf71aff10bd64
:10561800ac000020a2000020a00000209c00002078
:04562800a8000020b6
:020000040000fa
:10562c0010b5124b1a8dd2b2114b1b7a002b0ed126
:10563c000f4bd98818684254d9880131ff220a408f
:10564c00da809b8893420ad0fdf7f9fe10bdfdf776
:10565c00f6fe0422054b1a75fdf7f1fef6e7012262
:10566c00034b1a72fdf7ebfeeee7c0460004004256
:04567c007006002094
:020000040000fa
:1056800010b5124b1b8ddbb2114a127a002a0ed1d3
:105690000f4ad18810684354d38801339b059b0d72
:1056a000d38092889a420ad0fdf7cffe10bdfdf755
:1056b000ccfe0422054b1a75fdf7c7fef6e7012262
:1056c000034b1a72fdf7c1feeee7c0460008004228
:0456d000ac0000200a
:020000040000fa
:1056d40010b5124b1b8ddbb2114a127a002a0ed17f
:1056e4000f4ad18810684354d38801339b059b0d1e
:1056f400d38092889a420ad0fdf7a5fe10bdfdf72b
:10570400a2fe0422054b1a75fdf79dfef6e7012261
:10571400034b1a72fdf797feeee7c046000c0042f9
:045724007c140020d1
:020000040000fa
:1057280010b5124b1a8dd2b2114b1b7a002b0ed129
:105738000f4bd98818684254d9880131ff220a4092
:10574800da809b8893420ad0fdf77bfe10bdfdf7f7
:1057580078fe0422054b1a75fdf773fef6e7012261
:10576800034b1a72fdf76dfeeee7c04600100042cb
:04577800f42e0020eb
:020000040000fa
:10577c0010b5124b1a8dd2b2114b1b7a002b0ed1d5
